:100000000C94EA130C9412140C9412140C94121401
:100010000C9412140C9412140C9412140C941214C8
:100020000C9412140C9412140C9412140C941214B8
:100030000C9412140C9412140C9412140C941214A8
:100040000C94AA1F0C9412140C9412140C941214F5
:100050000C9412140C9412140C9412140C94121488
:100060000C9412140C941214FFE0FFD1AFFF32FF76
:10007000D0FFFEFFE0FFD1AEFFD0FFFEFFE0FFD1DB
:100080001000FFFEFFD0FFE0FFC1FFD1AED580A87A
:100090003FD300408D142000A1C8DA1281CFD9F1DE
:1000A000DB402EA4A6AFFFD0FFFE004140FCF323AF
:1000B000000000002A3A0024FA23001313391F0617
:1000C00010060C001E0F000F1E000F1E00071C0064
:1000D00003B80001B000C1F060FFFFE0FFFFE0F8EF
:1000E000E3E001F00003B80007BC00071C000F1E8E
:1000F000001E0F000E0E000208001D1D74310A00C4
:1001000000070000000700000007000000070000D3
:1001100000070000000700000007000000070000C3
:1001200000070000000700000007000000070000B3
:1001300000070000FFFFFFF8FFFFFFF8FFFFFFF8D9
:100140000007000000070000000700000007000093
:100150000007000000070000000700000007000083
:100160000007000000070000000700000007000073
:1001700000070000090C180D02FA1F801F001F0065
:100180003E003E003E003C007C007800780070009D
:10019000F0000C040810020AFFF0FFF0FFF0FFF07F
:1001A0000506060D0500F8F8F8F8F8F80F274E13C5
:1001B00002FD000E001E001C001C003C0038003830
:1001C000007800700070007000F000E000E001E0D6
:1001D00001C001C001C003C0038003800780070085
:1001E00007000F000F000E000E001E001C001C0078
:1001F0003C00380038003800780070007000F000D3
:100200001623691B020103FF0007FF801FFFE01F89
:10021000FFE03E03F03E01F07C00F87800F8780043
:1002200078F80078F8007CF8007CF8007CF8007C16
:10023000F8007CF8007CF8007CF8007CF8007CF882
:10024000007CF8007CF8007CF8007CF8007C7800EA
:100250007C7800787800787C00F83C00F83E01F06B
:100260003F03F01FFFE00FFFC007FF8001FF000CFE
:1002700023461B070003F007F00FF01FF07FF0FF8D
:10028000F0FDF0F1F0C1F001F001F001F001F0013A
:10029000F001F001F001F001F001F001F001F001D6
:1002A000F001F001F001F001F001F001F001F001C6
:1002B000F001F001F001F001F001F01523691B03DA
:1002C0000103FF000FFF801FFFC03FFFE03F01F071
:1002D0007E00F07C00F87C00F87C00F87C00F800E0
:1002E00000F80000F80000F00001F00003E0000753
:1002F000E00007C0000F80001F80003F00007E006C
:1003000000FC0001F80003F00007E0000FC0001F30
:10031000C0001F80003F00007E0000FC0000FFFFC7
:10032000F8FFFFF8FFFFF8FFFFF81623691B020133
:1003300003FF000FFFC01FFFE01FFFF03F01F83E6B
:1003400000F87C00787C00787C007C00007800005D
:10035000780000F80001F0000FE000FFC000FF008F
:1003600000FF8000FFC0000FE00001F00000F80077
:1003700000F800007C00007C00007CF8007CF800A5
:100380007CFC007CFC00787C00F87F03F83FFFF0E9
:100390001FFFE00FFFC003FF001823691B010000CF
:1003A00003F00007F00007F0000FF0001FF0003F1F
:1003B000F0003DF00079F000F9F000F1F001E1F01B
:1003C00003E1F003C1F00781F00F81F00F01F01E8F
:1003D00001F03E01F03C01F07801F0F801F0F0018D
:1003E000F0FFFFFFFFFFFFFFFFFFFFFFFF0001F038
:1003F0000001F00001F00001F00001F00001F00048
:1004000001F00001F00001F01523691B03007FFFDC
:10041000E07FFFE07FFFE07FFFE07C00007C0000EA
:100420007C00007C00007C00007C00007C00007CE4
:1004300000007CFE007DFF807FFFC07F83E07E01A7
:10044000F07C00F07800F878007800007800007800
:10045000000078000078000078000078F80078F854
:1004600000F8F800F0F801F07E03E03FFFE03FFF06
:10047000C00FFF8007FE001723691B020101FF80E8
:1004800007FFC00FFFE01FC1F01F00F83E00F83E5D
:1004900000787C00787C000078000078000078000C
:1004A00000780000787F0078FFC0F9FFF0FBFFF0D4
:1004B000FF83F8FE00F8FC007CFC007CF8003CF8B0
:1004C000003CF8003CF8003EF8003CF8003C7800A6
:1004D0003C7C007C7C00783F01F81FFFF00FFFE0C0
:1004E00007FFC001FF001523691B0300FFFFF8FF92
:1004F000FFF8FFFFF8FFFFF80000780000F80000A9
:10050000F00001F00001F00001E00003E00003E072
:100510000007C00007C0000780000F80000F8000A8
:100520000F00001F00001F00003E00003E00003EC4
:1005300000007C00007C0000F80000F80000F800DB
:1005400001F00001F00003F00003E00003E0000709
:10055000C00007C0001623691B020103FF800FFFC4
:10056000E01FFFF03FFFF83F01F87E00FC7C007CBD
:100570007C007C7C007C7C007C7C007C3C00783EA9
:1005800000F81F83F00FFFE003FF8007FF800FFFDD
:10059000E01F03F03E00F87C007878007CF8003C17
:1005A000F8003CF8003CF8003CF8003CF8003CF84F
:1005B000007C7C007C7E01F83FFFF81FFFF00FFFFE
:1005C000E003FF801623691B020103FF800FFFC0B9
:1005D0001FFFE03FFFF07E01F87C00F87800F8F89C
:1005E000007CF8007CF8007CF8007CF8007CF800C7
:1005F0007CF8007CF800FC7800FC7C01FC7F03FCAC
:100600003FFFFC1FFF7C0FFE7C03F87C00007C009A
:10061000007C0000780000780000F87800F878018D
:10062000F07C01F03E03E03FFFE01FFFC00FFF80C2
:1006300007FE000518180D0500F8F8F8F8F8F8009E
:100640000000000000000000000000F8F8F8F8F8D2
:10065000F801060C00FE070135026B20FFFE0AFEC2
:1006600008FE0C0060221767808080808000801761
:100670003363A0A0A002566650F85050F8500159BC
:10068000692070A8A07028A87020025767C8C810F9
:100690002040989802576740A0A040A89068271370
:1006A00063808080113969204040808080404020F4
:1006B0001139698040402020204040800257672047
:1006C000A8702070A8200355652020F82020013351
:1006D000636060C0055161F8122262C0C0025767B2
:1006E00008101020404080124767609090909090D2
:1006F0006012376740C040404040E0025767708852
:1007000008102040F8025767F80810300888700277
:10071000576710305090F81010025767F880F008B3
:10072000088870025767304080F0888870025767E9
:10073000F808101020202002576770888870888879
:100740007002576770888878081060122565C0C0ED
:1007500000C0C00136666060006060C0133565206F
:1007600040804020045363F800F813356580402032
:100770004080025767708810202000200257677061
:1007800088B8A8B88070025767708888F888888809
:10079000025767F04848704848F0025767708880F1
:1007A00080808870025767F04848484848F00257F0
:1007B00067F88080F08080F8025767F88080F080CA
:1007C0008080025767708880809888700257678899
:1007D0008888F8888888123767E04040404040E0C9
:1007E000025767381010101090600257678890A069
:1007F000C0A09088025767808080808080F8025770
:100800006788D8A8888888880257678888C8A89881
:10081000888802576770888888888870025767F0D0
:100820008888F080808002576770888888A89068E0
:10083000025767F08888F0A0908802576770888018
:1008400070088870025767F8202020202020025767
:100850006788888888888870025767888888885061
:10086000502002576788888888A8A8500257678850
:100870008850205088880257678888502020202080
:10088000025767F80810204080F8113969E080802D
:100890008080808080E002576780404020101008F0
:1008A000113969E020202020202020E00753632018
:1008B0005088005161F817336380402002556570FD
:1008C000087888780257678080F0888888F0025519
:1008D00065708880887002576708087888888878EB
:1008E0000255657088F08070025767304840E040DC
:1008F0004040005767708888887808700257678082
:1009000080F0888888881237674000C0404040E007
:100910001049691000301010101090600257678065
:10092000808890E09088123767C04040404040E0A7
:10093000025565D0A8A8A8A8025565B0C8888888BF
:100940000255657088888870005767F0888888F03D
:10095000808000576778888888780808025565B0D5
:10096000C880808002556578807008F00257672043
:1009700020F820202018025565888888986802553C
:100980006588888850200255658888A8A850025537
:10099000658850205088005767888888502040809C
:1009A000025565F8102040F8113969204040408018
:1009B0004040402021196980808080808080808034
:1009C00011396980404040204040408004536348D2
:1009D000A890FFFFFFFFFFFFFFFFFFFFFFFFFFFFED
:1009E000FFFFFFFFFFFFFFFFFFFFFFFFFFFFFFFF17
:1009F000FFFFFF0C006022176780008080808080EE
:100A00000157672070A8A0A870200257673048409F
:100A1000E04048B0025565A8508850A80257678842
:100A200050F820F820202217678080800080808086
:100A300012486870806090906010E0193161A002E7
:100A40006767788494A494847816356560A0600004
:100A5000E00255652850A05028035363F808081594
:100A60003161E00267677884B4A4A4847809516195
:100A7000F8174464609090600257672020F82020A7
:100A800000F817356540A02040E0173565C02040CC
:100A900020C017336320408000576788888898E813
:100AA000808002586878E8E8E868282828252262CB
:100AB000C0C010326220C017356540C04040E0170A
:100AC000356540A04000E0025565A0502850A002C6
:100AD0005A6A40C04040503050781010025A6A4064
:100AE000C04040502808102038025A6AC0204020D8
:100AF000D0305078101002576720002020408870B6
:100B0000025A6A402000708888F8888888025A6AE9
:100B1000102000708888F8888888025A6A2050005F
:100B2000708888F8888888025A6A68B00070888857
:100B3000F88888880259695000708888F888888801
:100B4000025A6A205020708888F88888880257677F
:100B500078A0A0F0A0A0B800596970888080808833
:100B6000701060025A6A402000F88080F08080F89F
:100B7000025A6A102000F88080F08080F8025A6AD9
:100B8000205000F88080F08080F80259695000F809
:100B90008080F08080F8123A6A804000E040404057
:100BA0004040E0123A6A204000E04040404040E0CF
:100BB000123A6A40A000E04040404040E0123969EB
:100BC000A000E04040404040E0025767704848E8DD
:100BD000484870025A6A68B0008888C8A89888880F
:100BE000025A6A40200070888888888870025A6A91
:100BF00010200070888888888870025A6A20500007
:100C000070888888888870025A6A68B000708888FE
:100C10008888887002596950007088888888887030
:100C20000355658850205088015969087098A8A814
:100C3000A8C87080025A6A402000888888888888FE
:100C400070025A6A10200088888888888870025A42
:100C50006A20500088888888888870025969500006
:100C600088888888888870025A6A1020008888508E
:100C70002020202012476780E0909090E08002576B
:100C800067708890A09088B0025868402000700873
:100C900078887802586810200070087888780258A0
:100CA00068205000700878887802586868B0007032
:100CB000087888780257675000700878887802585A
:100CC000682050207008788878025565702870A0D8
:100CD00078005767708880887010600258684020DC
:100CE000007088F080700258681020007088F080D2
:100CF000700258682050007088F08070025767506A
:100D0000007088F08070123868804000C040404019
:100D1000E0123868204000C0404040E0123868408F
:100D2000A000C0404040E0123767A000C0404040F3
:100D3000E002596950205008788888887002586805
:100D400068B000B0C8888888025868402000708861
:100D5000888870025868102000708888887002584F
:100D600068205000708888887002586868B00070E9
:100D7000888888700257675000708888887003558B
:100D8000652000F800200255657898A8C8F0025840
:100D90006840200088888888700258681020008881
:100DA0008888887002586820500088888888700277
:100DB000576750008888888870005A6A1020008819
:100DC0008888502040800059698080F0888888F0A9
:100DD0008080005969500088888850204080010632
:100DE0000A00FE070136026820FFFE08FE07FE0A21
:100DF000006022176780808080800080163363A0A7
:100E0000A0A00257675050F850F850500257672082
:100E100070A07028702002576748A8502050A890F2
:100E200002576740A0A040A8906826136380808086
:100E30001237672040808080402012376780402032
:100E4000202040800355658850F850880355652060
:100E500020F82020113363604080055161F8113380
:100E60006340E04002576708081020408080025726
:100E700067205088888850200257672060A0202073
:100E800020F8025767708808304080F8025767F8EA
:100E900008103008887002576710305090F8101012
:100EA000025767F880B0C8088870025767304080E2
:100EB000B0C88870025767F80810102040400257E9
:100EC000677088887088887002576770889868088B
:100ED000106011376740E0400040E0401137674044
:100EE000E0400060408012476710204080402010A2
:100EF000045363F800F812476780402010204080B8
:100F00000257677088102020002002576770889869
:100F1000A8B0807002576720508888F888880257E8
:100F200067F04848704848F00257677088808080B2
:100F30008870025767F04848484848F0025767F8F9
:100F40008080F08080F8025767F88080F080808091
:100F500002576770888080988870025767888888F1
:100F6000F8888888123767E04040404040E00257E8
:100F700067381010101090600257678890A0C0A0CA
:100F80009088025767808080808080F80257678849
:100F900088D8A88888880257678888C8A8988888C9
:100FA00002576770888888888870025767F0888839
:100FB000F08080800158687088888888A87008024E
:100FC0005767F08888F0A090880257677088807013
:100FD000088870025767F8202020202020025767D9
:100FE0008888888888887002576788888850505019
:100FF00020025767888888A8A8D8880257678888F9
:10100000502050888802576788885020202020026E
:101010005767F80810204080F8123767E08080801A
:101020008080E002576780804020100808123767F0
:10103000E02020202020E0065363205088015161E9
:10104000F828226280400255657008788878025737
:10105000678080B0C888C8B0025565708880887085
:10106000025767080868988898680255657088F87C
:101070008070025767304840F04040400057677822
:101080008888780888700257678080B0C888888808
:101090001237674000C0404040E0104969100030FE
:1010A00010101090906002576780808890E09088C0
:1010B000123767C04040404040E0025565D0A8A8C4
:1010C000A888025565B0C8888888025565708888E8
:1010D0008870005767B0C888C8B0808000576768BC
:1010E000988898680808025565B0C88080800255C5
:1010F0006570807008F00257674040F0404048300B
:1011000002556588888898680255658888505020FF
:101110000255658888A8A8500255658850205088D7
:1011200000576788889868088870025565F810200D
:1011300040F8124767304020C020403022176780B7
:10114000808080808080124767C02040304020C06F
:1011500006536348A890FFFFFFFFFFFFFFFFFFFF5D
:10116000FFFFFFFFFFFFFFFFFFFFFFFFFFFFFFFF8F
:10117000FFFFFFFFFFFFFF0A00602217678000806C
:10118000808080800157672078A0A0A07820025737
:1011900067304840E04048B002556588705070881C
:1011A00001586888885020F8202020221767808006
:1011B00080008080800158687080E0904838087016
:1011C000193161A00257677088A8C8A888701346B3
:1011D000667090B05000F002656524489048241471
:1011E0004262F010154161F00257677088E8C8C884
:1011F0008870095161F816336340A040025666209A
:1012000020F82020F815456560902040F0154565D0
:10121000E0106010E02822624080015666888888CD
:10122000C8B08002576778E8E86828282825116147
:1012300080202262408015356540C04040E0134662
:10124000666090906000F0026565904824489001C7
:10125000696940C04040E40C143C0401696940C025
:101260004040E81404081C015969C0204020C818F7
:1012700028780802576720002020408870025868AC
:101280004020708888F88888025868102070888804
:10129000F888880258682050708888F88888025832
:1012A0006848B0708888F88888025868500070884C
:1012B00088F888880258682050708888F8888802E2
:1012C00067673C50909CF0909C00596970888080C2
:1012D000808870204002586840F88080F08080F854
:1012E00002586810F88080F08080F802586820F872
:1012F0008080F08080F802586850F88080F080800C
:10130000F81238688040E040404040E012386820E1
:1013100040E040404040E012386840A0E04040409B
:1013200040E0123868A000E040404040E0025767CB
:10133000F04848E84848F0025868285088C8A898FB
:1013400088880258684020708888888870025868A9
:1013500010207088888888700258682050708888AB
:101360008888700258682850708888888870025869
:1013700068500070888888887002556588502050B1
:1013800088025767709898A8C8C8700258684020AB
:10139000888888888870025868102088888888889B
:1013A00070025868205000888888887002586850F9
:1013B00000888888888870025868102088885020A3
:1013C000202002576780F088F08080800257677085
:1013D0008890A09088B002586840200070087888F3
:1013E00078025868102000700878887802586820C1
:1013F0005000700878887802586828500070087883
:1014000088780257675000700878887802586820FA
:101410005020700878887802656578147C907C008C
:10142000576770888088702040025868402000709C
:1014300088F880700258681020007088F880700268
:1014400058682050007088F880700257675000700C
:1014500088F88070123868804000C0404040E01238
:101460003868408000C0404040E012386840A0002A
:10147000C0404040E0123767A000C0404040E0025A
:101480005767C0307088888870025868285000B04C
:10149000C888888802586840200070888888700250
:1014A00058681020007088888870025868205000A2
:1014B0007088888870025868285000708888887002
:1014C000025767500070888888700355652000F8BF
:1014D00000200255657898A8C8F00258684020009E
:1014E00088888898680258681020008888889868DA
:1014F0000258682050008888889868025767500012
:1015000088888898680059691020888898680888B1
:101510007000586880F0888888F080800059695091
:101520000088889868088870000A1400FC0D024A38
:10153000049920FFFC10FC0DFC0000000A001002C2
:101540000D0D0A0400C0C0C0C0C0C0C0C0C0C000F3
:10155000C0C00604040A0209CCCCCC48090B160A08
:1015600001011B001B001B007F8036003600360087
:10157000FF006C006C006C00080D0D0A0100187E65
:10158000DBD8D8D87E1B1B1BDB7E18090C180A0180
:10159000007300DB00DE0076000C000C0018001861
:1015A0000037003D806D806700090D1A0A01003880
:1015B000006C006C006C00780030007000D800CD2A
:1015C00080C700C600EF0079800205050A0408C044
:1015D000C0C0C080050D0D0A030018306060C0C097
:1015E000C0C0C060603018050D0D0A0200C0603038
:1015F000301818181818303060C00807070A01039F
:1016000066663CFF3C66660807070A01031818185F
:10161000FF1818180403030A03FF7070E0080101A3
:101620000A0106FF0303030A0400E0E0E0070C0CD4
:101630000A020006060C0C181830306060C0C008A2
:101640000D0D0A0100183C6666C3C3C3C3C36666BA
:101650003C18080D0D0A0100183878D81818181809
:1016600018181818FF080D0D0A01003C66C3C303C3
:1016700003061C3060C0C0FF080D0D0A01003C6667
:10168000C3C303061C0603C3C3663C080D0D0A0151
:101690000002060E1E3666C6C6FF06060606080DC2
:1016A0000D0A0100FFC0C0C0C0DCE6030303C3662F
:1016B0003C080D0D0A01003C66C2C0C0DCE6C3C395
:1016C000C3C3663C080D0D0A0100FF030306060CA8
:1016D0000C181830306060080D0D0A01003C66C31C
:1016E000C3C3663C66C3C3C3663C080D0D0A010054
:1016F0003C66C3C3C3C3673B030343663C0308089C
:101700000A0400E0E000000000E0E00409090A0328
:10171000FF7070000000007070E0070D0D0A0100FE
:1017200002060C183060C06030180C06020806066D
:101730000A0103FF00000000FF070D0D0A020080F0
:10174000C06030180C060C183060C080080D0D0AFF
:1017500001003C66C3C3C3060C181818001818080B
:101760000D0D0A01003C66C3CFDFDBDBDBDECCC046
:10177000633E080D0D0A0100183C6666C3C3C3FF33
:10178000C3C3C3C3C3080D0D0A0100F8CCC6C6C647
:10179000CCFCC6C3C3C3C6FC080D0D0A01003C66E1
:1017A000C3C0C0C0C0C0C0C0C3663C080D0D0A01A4
:1017B00000FCC6C3C3C3C3C3C3C3C3C3C6FC080DB5
:1017C0000D0A0100FFC0C0C0C0C0FCC0C0C0C0C086
:1017D000FF080D0D0A0100FFC0C0C0C0C0FCC0C0A2
:1017E000C0C0C0C0080D0D0A01003C66C3C0C0C027
:1017F000CFC3C3C3C3673D080D0D0A0100C3C3C3F4
:10180000C3C3C3FFC3C3C3C3C3C3080D0D0A0100D1
:10181000FF1818181818181818181818FF090D1A92
:101820000A01001F800600060006000600060006EA
:101830000006000600C600C6006C003800080D0D4A
:101840000A0100C3C3C6C6CCCCF8CCCCC6C6C3C341
:10185000080D0D0A0100C0C0C0C0C0C0C0C0C0C0DB
:10186000C0C0FF080D0D0A0100C3C3E7E7FFDBDBC3
:10187000DBDBC3C3C3C3080D0D0A0100C3E3E3F3FD
:10188000F3DBDBCFCFC7C7C3C3080D0D0A01003C94
:1018900066C3C3C3C3C3C3C3C3C3663C080D0D0A39
:1018A0000100FCC6C3C3C3C3C6FCC0C0C0C0C008DF
:1018B0000E0E0A01FF3C66C3C3C3C3C3C3C3DBCF61
:1018C000663E03080D0D0A0100FCC6C3C3C3C3C6B0
:1018D000FCCCC6C6C3C3080D0D0A01003C66C3C0DC
:1018E000C0603C060303C3663C080D0D0A0100FFFF
:1018F000181818181818181818181818080D0D0A9C
:101900000100C3C3C3C3C3C3C3C3C3C3C3663C08CB
:101910000D0D0A0100C3C3C3C36666663C3C3C1898
:101920001818080D0D0A0100C3C3C3C3C3DBDBDBFA
:10193000DBE7E7C3C3080D0D0A0100C3C366663CBD
:101940003C183C3C6666C3C3080D0D0A0100C3C3C6
:1019500066663C3C18181818181818080D0D0A016E
:1019600000FF0303060C0C18303060C0C0FF060DEA
:101970000D0A0200FCC0C0C0C0C0C0C0C0C0C0C012
:10198000FC070C0C0A0200C0C06060303018180C54
:101990000C0606060D0D0A0200FC0C0C0C0C0C0CBF
:1019A0000C0C0C0C0CFC0804040A0109183C66C35E
:1019B0000901020A01FFFF800403030A030AC06051
:1019C000300808080A01003E63037FC3C3C37D08D3
:1019D0000D0D0A0100C0C0C0C0C0DCE6C3C3C3C354
:1019E000E6DC0808080A01003E63C0C0C0C0633ED0
:1019F000080D0D0A010003030303033B67C3C3C3C0
:101A0000C3673B0808080A01003C66C3FFC0C06307
:101A10003E080D0D0A01001E33333030FC303030EB
:101A200030303030080C0C0A01FC7DC7C6C6C67CBD
:101A3000C07EC3C3C37E080D0D0A0100C0C0C0C074
:101A4000C0DCE6C3C3C3C3C3C3080B0B0A01001841
:101A5000180078181818181818FF070F0F0A02FC3A
:101A60000606001E06060606060606C6C6C67C084C
:101A70000D0D0A0100C0C0C0C0C0C6CCD8F0F8CC63
:101A8000C6C3080D0D0A0100781818181818181880
:101A900018181818FF0808080A0100B6FFDBDBDB7E
:101AA000DBDBDB0808080A0100DCE6C3C3C3C3C3F1
:101AB000C30808080A01003C66C3C3C3C3663C08E8
:101AC0000C0C0A01FCDCE6C3C3C3C3E6DCC0C0C027
:101AD000C0080C0C0A01FC3B67C3C3C3C3673B03CC
:101AE0000303030808080A0100DE73606060606099
:101AF000600808080A01007EC3C07E0303C37E0895
:101B00000B0B0A0100303030FC3030303030331EE7
:101B10000808080A0100C3C3C3C3C3C3673B08085E
:101B2000080A0100C3C366663C3C18180808080A86
:101B30000100C3C3C3DBDBDBFF660808080A010042
:101B4000C3663C18183C66C3080C0C0A01FCC3C3EE
:101B5000C3C3C3C3673B03C3663C0708080A02004C
:101B6000FE060C183060C0FE080D0D0A01000F18AB
:101B700018181818F018181818180F020D0D0A0464
:101B800000C0C0C0C0C0C0C0C0C0C0C0C0C0080D80
:101B90000D0A0100F018181818180F18181818183E
:101BA000F00803030A010A73DBCEFFFFFFFFFFFF0C
:101BB000FFFFFFFFFFFFFFFFFFFFFFFFFFFFFFFF35
:101BC000FFFFFFFFFFFFFFFFFFFFFF0000000A0016
:101BD00010020D0D0A0400C0C000C0C0C0C0C0C0CB
:101BE000C0C0C0C0070C0C0A010018183C66C2C077
:101BF000C0C2663C1818090C180A01001E00330008
:101C0000330030003000FC00300030003000F800BD
:101C1000AD80E7000909120A00018080DD807F00A5
:101C20006300630063007F00DD808080080B0B0A87
:101C3000010081C3663C7E187E18181818020D0D2D
:101C40000A0400C0C0C0C0C0000000C0C0C0C0C006
:101C5000080D0D0A01003C66C66078CC66331E068E
:101C600063663C0602020A020BCCCC080B0B0A018D
:101C7000003C66C3BDA5A1A5BDC3663C0809090A11
:101C800001043E43037FC3C37D00FF090B160A0016
:101C90000004800D801B0036006C00D8006C0036FC
:101CA000001B000D8004800804040A0104FFFF03E8
:101CB000030601010A0206FC080B0B0A01003C6640
:101CC000C3BDA5BDA9ADC3663C0801010A010DFF56
:101CD0000606060A02073078CCCC78300807070AD7
:101CE00001021818FF181800FF0507070A020670FE
:101CF000D8183060C0F80507070A020670D81830F7
:101D000018D8700403030A030A3060C0070A0A0ADD
:101D100001FDC6C6C6C6C6EEFAC0C0C0080D0D0A93
:101D200001007FFFFBFBFB7B1B1B1B1B1B1B1B0308
:101D300003030A0405E0E0E00504040A02FC30188D
:101D4000D8700407070A020660E060606060F00770
:101D500009090A0104386CC6C6C66C3800FE090BB6
:101D6000160A01009000D8006C0036001B000D80A0
:101D70001B0036006C00D8009000080C0C0A010112
:101D800040C04142E40812264A9E0202080C0C0A96
:101D9000010140C04142E40816294182040F080CA9
:101DA0000C0A0101E0106112E40812264A9F0202A7
:101DB000080D0D0A01001818001818183060C3C368
:101DC000C3663C080F0F0A010060301800183C661B
:101DD000C3C3C3FFC3C3C3C3080F0F0A0100060C6C
:101DE0001800183C66C3C3C3FFC3C3C3C3080F0FA7
:101DF0000A0100183C6600183C66C3C3C3FFC3C396
:101E0000C3C3080F0F0A0100327E4C00183C66C3A2
:101E1000C3C3FFC3C3C3C3080F0F0A010066660034
:101E2000183C6666C3C3C3FFC3C3C3C30810100A0C
:101E300001003C66663C00183C66C3C3C3FFC3C3D5
:101E4000C3C3080D0D0A01001F3C6C6CCCCCFFCC49
:101E5000CCCCCCCCCF0811110A01FC3C66C3C0C06D
:101E6000C0C0C0C0C0C3663C180C6C38080F0F0A55
:101E7000010060301800FFC0C0C0C0FCC0C0C0C0BE
:101E8000FF080F0F0A01000C183000FFC0C0C0C0CF
:101E9000FCC0C0C0C0FF080F0F0A0100183C66005C
:101EA000FFC0C0C0C0FCC0C0C0C0FF080F0F0A0107
:101EB0000066660000FFC0C0C0C0FCC0C0C0C0FF5C
:101EC000060F0F0A020060301800FC30303030304E
:101ED00030303030FC060F0F0A020018306000FC72
:101EE000303030303030303030FC060F0F0A020016
:101EF0003078CC00FC303030303030303030FC06C0
:101F00000F0F0A0200CCCC00FC30303030303030C3
:101F1000303030FC090D1A0A00007E006300618039
:101F2000618061806180F980618061806180618011
:101F300063007E00080F0F0A0100327E4C00C3E3ED
:101F4000F3F3DBDBCFCFC7C3C3080F0F0A010030A9
:101F5000180C003C66C3C3C3C3C3C3C3663C080FAD
:101F60000F0A01000C1830003C66C3C3C3C3C3C3CF
:101F7000C3663C080F0F0A0100183C66003C66C3AC
:101F8000C3C3C3C3C3C3663C080F0F0A0100327E3C
:101F90004C003C66C3C3C3C3C3C3C3663C080F0F36
:101FA0000A01006666003C66C3C3C3C3C3C3C3C3A0
:101FB000663C0708080A010082C66C38386CC68285
:101FC000080F0F0A01FF013E66C7C7CBCBCBD3D3A7
:101FD000D3E3667C80080F0F0A010030180C00C3A1
:101FE000C3C3C3C3C3C3C3C3663C080F0F0A010006
:101FF0000C183000C3C3C3C3C3C3C3C3C3663C0808
:102000000F0F0A0100183C6600C3C3C3C3C3C3C398
:10201000C3C3663C080F0F0A0100666600C3C3C352
:10202000C3C3C3C3C3C3C3663C080F0F0A01000C7C
:10203000183000C3C366663C3C1818181818070D02
:102040000D0A0200C0C0C0FCC6C6C6C6C6FCC0C0E1
:10205000C0080D0D0A01001C36636366EC6C6663F4
:102060006363666C080C0C0A010030180C007EC318
:10207000037FC3C3C37D080C0C0A01000C18300099
:102080007EC3037FC3C3C37D080C0C0A0100183C48
:1020900066007EC3037FC3C3C37D080C0C0A010026
:1020A000327E4C007EC3037FC3C3C37D080B0B0A83
:1020B00001006666007EC3037FC3C3C37D080D0DA8
:1020C0000A01003C66663C007EC3037FC3C3C37D38
:1020D0000808080A0100769B1B1E78D8D96E080CE8
:1020E0000C0A01FC3E63C0C0C0C0633E180C6C38D3
:1020F000080C0C0A0100603018003C66C3FFC0C029
:10210000633E080C0C0A0100060C18003C66C3FF75
:10211000C0C0633E080C0C0A0100183C66003C6617
:10212000C3FFC0C0633E080B0B0A01006666003C9B
:1021300066C3FFC0C0633E080C0C0A010060301883
:102140000078181818181818FF080C0C0A01000C51
:1021500018300078181818181818FF080C0C0A0105
:1021600000183C660078181818181818FF080B0B90
:102170000A010066660078181818181818FF080D6C
:102180000D0A010088D87070D88C3E67C3C3C3663F
:102190003C080C0C0A0100327E4C00DCE6C3C3C3D1
:1021A000C3C3C3080C0C0A0100603018003C66C3AE
:1021B000C3C3C3663C080C0C0A0100060C18003CA3
:1021C00066C3C3C3C3663C080C0C0A0100183C6616
:1021D000003C66C3C3C3C3663C080C0C0A01003252
:1021E0007E4C003C66C3C3C3C3663C080B0B0A01AC
:1021F000006666003C66C3C3C3C3663C080A0A0A9D
:10220000010118180000FFFF00001818080A0A0A48
:1022100001FF013E66CBCBD3D3667C80080C0C0A51
:10222000010030180C00C3C3C3C3C3C3673B080C11
:102230000C0A0100060C1800C3C3C3C3C3C3673B29
:10224000080C0C0A0100183C6600C3C3C3C3C3C317
:10225000673B080B0B0A0100666600C3C3C3C3C318
:10226000C3673B0810100A01FC0C183000C3C3C33D
:10227000C3C3C3673B03C3663C0711110A02FCC01A
:10228000C0C0C0C0C0F8CCC6C6C6CCF8C0C0C0C0B4
:10229000080F0F0A01FC666600C3C3C3C3C3C3674C
:1022A0003B03C3663C01050600FF0500FA01F1206F
:1022B000FF0005FF05000200200215258080800038
:1022C00080053242A0A002354540E040E0400235A2
:1022D0004560C04060C0023545A0204080A0024556
:1022E00055608070A06005122280800225354080F4
:1022F0008080400225358040404080043343A04028
:10230000A003334340E0400122324080043141E0E9
:10231000021121800235452020408080023545E0B1
:10232000A0A0A0E0022535C040404040023545E075
:1023300020E080E0023545E020E020E0023545A0C5
:10234000A0A0E020023545E080E020E00235458095
:10235000E0A0A0E0023545E020204080023545E0C5
:10236000A0E0A0E0023545E0A0A0E0200313238018
:102370000080021424800080800235452040804087
:1023800020033343E000E0023545804020408002D6
:102390003545E0206000400255657088E8A860027D
:1023A0003545E0A0A0E0A0023545E0A0E0A0E002B5
:1023B0003545E0808080E0023545C0A0A0A0E00265
:1023C0003545E080E080E0023545E080E080800235
:1023D0003545E080A0A0E0023545A0A0E0A0A00225
:1023E000152580808080800235452020A0A0E00255
:1023F0003545A0A0C0A0A002354580808080E002C5
:102400003545A0E0A0A0A0023545E0A0A0A0A00214
:102410003545E0A0A0A0E0023545E0A0A0E08001A5
:102420003646E0A0A0A0E040023545E0A0A0C0A054
:10243000023545E080E020E0023545E04040404084
:10244000023545A0A0A0A0E0023545A0A0A0A0C0F4
:10245000023545A0A0A0E0A0023545A0A040A0A064
:10246000023545A0A0404040023545E0204080E0D4
:10247000022535C0808080C0023545808040202004
:10248000022535C0404040C005324240A0023141E3
:10249000E0052232804002354540A0A0E0A0023590
:1024A00045C0A0C0A0C00235456080808060023574
:1024B00045C0A0A0A0C00235456080E08060023524
:1024C000456080E080800235456080A0A0600235D4
:1024D00045A0A0E0A0A00215258080808080023564
:1024E000452020A0A040023545A0A0C0A0A00235F4
:1024F000458080808060023545A0E0A0A0A0023524
:1025000045C0A0A0A0A002354540A0A0A040023533
:1025100045C0A0A0C08001364640A0A0A040400217
:102520003545C0A0A0C0A002354560804020C00253
:102530003545E040404040023545A0A0A0A0400203
:102540003545A0A0A0A0C0023545A0A0A0E0A002F3
:102550003545A0A040A0A0023545A0A040404002C3
:102560003545E0204080E00235456040C0406002D3
:1025700015258080808080023545C0406040C006BF
:102580002131C0FFFFFFFFFFFFFFFFFFFFFFFFFF46
:10259000FFFFFFFFFFFFFFFFFFFFFFFFFFFFFFFF4B
:1025A000FFFFFFFFFF0225358040404040023545D8
:1025B000A0A0A06020023545C020C020C0FFFFFFC2
:1025C00002354580C0A0A040FFFF02354540A0A0D5
:1025D0006020FFFFFFFFFFFFFFFFFFFFFF0235450A
:1025E000E020204080FFFFFF02354540A0A0A04032
:1025F000FFFFFFFFFFFFFFFFFFFFFFFFFFFFFFFFEB
:10260000FFFFFFFFFFFFFFFFFFFFFFFFFFFFFFFFDA
:10261000FFFFFFFFFFFFFFFFFFFFFFFFFFFFFFFFCA
:10262000FFFFFFFFFFFFFFFFFFFFFFFFFFFFFFFFBA
:10263000FFFFFFFFFF62792073616B6870696C6F49
:1026400074732E727500312E3347687A2076696470
:10265000656F00534D313337305200525353493A6E
:102660002575252500536561726368696E672E2E96
:102670002E00AC26A726A2269D26982693268E26D7
:1026800089268426313235380031333630003133F3
:1026900032300031323830003132343000313230B3
:1026A00030003131363000313132300031303830A5
:1026B000000000000000000000000000000000001A
:1026C000000000000E00000000001F00000000805D
:1026D0003F00000000807F0000000080FF0000003D
:1026E0000000FF0100000000FF0300000000FE0FDB
:1026F00000000000FC1F00000000F83F000F000079
:10270000F87F800F0000F0FFE00F0000E0FFF30F04
:102710000000E0FFFF070000C0FFFF03000080FF94
:10272000FF03000000FFFF01000000FFFF000000AA
:1027300000FEFF00000000FCFF01000000FCFF01A4
:10274000000000F8FF03000000F8FF07000000FC95
:10275000FF0F000000FEFF1F000000FFFF3F000012
:10276000003FFF3F0000801FFC7F0038C00FF8FFD4
:1027700000F8E003E0FF01FCE101C0FF03F8F30013
:1027800080FF07F03F0000FE0FE01F0000FC1FE08D
:102790001F0000F01FC03F0000E01F807F0000C04E
:1027A0000F00FF0000000700FE0000000000FC0119
:1027B00000000000F00100000000E0010000000047
:1027C00040000000000000000000000000000000C9
:1027D0000000891F11241FBECFEFD8E0DEBFCDBFA0
:1027E00011E0A0E0B1E0EEEDF5E402C005900D923D
:1027F000A831B107D9F722E0A8E1B1E001C01D92EC
:10280000A530B207E1F713E1CAEED3E104C0219786
:10281000FE010E940820C93ED107C9F70E94731F1C
:102820000C94ED220C940000F999FECF72BD61BDAD
:1028300040BDFA9AF99A0895F999FECF72BD61BD2B
:10284000F89A80B508952F923F924F925F926F92BF
:102850007F928F929F92AF92BF92CF92DF92EF9230
:10286000FF920F931F93CF93DF9300D0CDB7DEB7C6
:102870004C01162F242E322F502E39830E94A11482
:102880003981882309F448C087E0830FC82EC69495
:10289000C694C694D12C520C87E0482E410E832F4B
:1028A000869586958695682E712C98E0899F100DE7
:1028B0001124342C330E37703A83251469F15701F3
:1028C000342D832D831B883078F0F501049122E0AC
:1028D000422D632FC40139830E94821AFFEFAF1A81
:1028E000BF0A3981385FEDCFF701E60DF71DAA80E9
:1028F000AA2071F0B490012FB0FE05C0422D602FC8
:10290000C4010E947A1A0F5FAA94B694A110F4CF62
:10291000EC0CFD1C2394D1CF0F900F90DF91CF9141
:102920001F910F91FF90EF90DF90CF90BF90AF90ED
:102930009F908F907F906F905F904F903F902F90DF
:1029400008950F93FC010150040F84A996A99417D0
:1029500018F0081728F402C0081750F0041740F4C4
:102960002150260F83A995A9961720F4281720F443
:1029700080E007C0281720F481E0261710F0F8CF78
:1029800081E00F910895DB011496ED91FC9115976C
:1029900020E030E061E00994DB011496ED91FC91B8
:1029A000159720E030E063E00994DB011496ED9187
:1029B000FC91159720E030E040E064E00994DB01F1
:1029C0001496ED91FC91159720E030E041E064E031
:1029D0000994DB011496ED91FC91159720E030E00D
:1029E00062E00994DB011496ED91FC91159720E0CB
:1029F00030E065E00994DB011496ED91FC911597A8
:102A000066E00994CF92DF92EF92FF920F931F93AB
:102A1000CF93DF938C017B016A0180E0F601C491C2
:102A200081110AC0CF3FE9F14C2FB701C8010E94C4
:102A3000F21481112FC03AC0CF3F11F44FEFF5CF00
:102A4000CE3FB1F1C03F30F5C03E38F04C2F4F7053
:102A5000B701C8010E94E9141DC0C03D38F04C2FD9
:102A60004F70B701C8010E94CC1414C0C03CA0F044
:102A7000B701C8010E94D514C295C07FCE5FD0E0D7
:102A8000CE010E947916B701C8010E94DF14CE0161
:102A90000E94791680E006C0C7FDFCCF8C2F90E025
:102AA000F7CF81E0FFEFCF1ADF0AB8CF80E001C097
:102AB00081E0DF91CF911F910F91FF90EF90DF9018
:102AC000CF900895CF93DF93FC0123A5222381F0BB
:102AD000EC0188E70E941A16811102C080E009C04B
:102AE0008EA1811180E40E9451168823B9F31BA6A0
:102AF00081E0DF91CF9108950F931F93CF93C42F5F
:102B000089016330C1F050F4613081F0623009F026
:102B100048C0FC0146A321E023A743C0663011F161
:102B2000673079F1653009F03CC00EC0FC0186A524
:102B30000E94E41536C0FC0116A221E023A7411132
:102B400030C00E9472162DC00E946215811104C00F
:102B50000E94721680E026C08C2F0E9451168111AF
:102B600020C0F6CF0E946215882391F3CC23C9F0D0
:102B7000F80181918F010E945116882349F3C150B9
:102B8000F5CF0E946215882319F3CC2351F0F80188
:102B900084910E945116882329F00F5F1F4FC15066
:102BA000F4CF81E0CF911F910F91089590911A0178
:102BB000911104C080931A01609318010895109236
:102BC0001A01109218010895809319011092B9000A
:102BD00084FF02C08CE001C088E48093B8000C94AC
:102BE000DF151F93CF93DF9300D0CDB7DEB720ED75
:102BF00037E03A8329839091BC00982399F4298186
:102C00003A81232B51F480911901182F127081FD04
:102C100009C081E00E94D61506C029813A81215061
:102C20003109E7CF11E0812F0F900F90DF91CF9105
:102C30001F910895CF93C82F84EA8093BC0061E070
:102C400080E80E94F115882359F09091B900987F8F
:102C5000983041F0903131F061E082E00E94D61569
:102C6000C0E01CC0C093BB0084E88093BC0062E05D
:102C700080E80E94F115882399F380911901C82FEB
:102C8000C27081FD0AC08091B900887F883129F027
:102C900062E082E00E94D61501C0C1E08C2FCF9186
:102CA0000895CF938093BB0084E88093BC0063E0D9
:102CB00080E80E94F115C82F882389F080911901BE
:102CC000C82FC27081FD0AC08091B900887F883208
:102CD00029F063E082E00E94D61501C0C1E08C2F8C
:102CE000CF91089584E98093BC0064E080E10C9466
:102CF000F11528EF30E0009729F0F9013197F1F74D
:102D00000197F9CF0895AF92BF92CF92DF92FF92D1
:102D10000F931F93CF93DF938C01EB01F42E690186
:102D200080E1481709F454C0841700F1EAE04E1717
:102D300021F1FFE04F1357C041E0C8010E94CC14BD
:102D400040E0BE01C8010E94E91441E8BE01C8018B
:102D50000E94F214F6014081BE01C8010E94F214E3
:102D600040E0BE01C8010E94CC143BC081E148177D
:102D700091F1E5E14E1761F036C042E0C8010E94D2
:102D8000C31444E850E0BE01C8010E9402152BC0E4
:102D9000AA80BB804CE750E0C8010E940215F501F3
:102DA0004481406BBE01C8010E94F21441E0BE01A3
:102DB000C8010E94E914AE01B801C5010E94F61ACB
:102DC000882301F140E0BE01C8010E94CC140BC071
:102DD00043E750E002C048E650E0BE01C8010E944F
:102DE000021581E00FC096014F2DBE01C801DF9191
:102DF000CF911F910F91FF90DF90CF90BF90AF9038
:102E00000C94621BDF91CF911F910F91FF90DF9087
:102E1000CF90BF90AF900895FC01E60FF11D849113
:102E200090E0982F88273196E4918E0F911D089598
:102E3000FC01849108950E941817882321F08230A4
:102E400011F083E0089586E0089580E0089566E03B
:102E50000C940C1768E00C940C170A96FC018491F2
:102E600008950B96FC0184910895BF92CF92DF9252
:102E7000EF92FF920F931F93CF93DF938C01E62E77
:102E8000DC011496CD91DC911597CE010E941817A4
:102E9000F82EF801848195810E941B17C82EF1E05D
:102EA000FF1203C02FE0B22E02C0BB24BA94D80197
:102EB00014968D919C9115970E942D17F82EF8016C
:102EC000848195810E943117D82ED80114968D9156
:102ED0009C9115970E942A17B0E6BE1538F400970A
:102EE00029F0C80FD91F91E6F92E10C0F80184818E
:102EF00095810E942717F0E4FE1538F4009729F019
:102F0000C80FD91F81E4F82E01C06196DE1490F439
:102F1000D80150961C92509753961C9253975496F2
:102F20001C92549751961C92519752961C9280E095
:102F300090E067C0DF1460F38C2D90E0FE012491D7
:102F40002F3F11F4219658C0FE104DC0D8011496A1
:102F50008D919C9115970E9418179E012F5F3F4FEE
:102F6000FE01882311F08230E1F48491D801539658
:102F70008C935397F901249154962C935497FE0106
:102F80003396E4915096EC935097FE013496E49179
:102F90005196EC935197FE013596E4915296EC933D
:102FA00020C08491982F9F709250D80152969C9384
:102FB000529782958F7051968C935197F901249175
:102FC000822F8F7054968C93549722952F7053961E
:102FD0002C935397FE013296E491E295EF70509650
:102FE000EC93CE010EC0FE013296E491EB219C01E0
:102FF0002E0F311DC20FD31FFD1409F489CFF39496
:103000009DCFDF91CF911F910F91FF90EF90DF90B7
:10301000CF90BF9008954F925F926F927F929F9250
:10302000AF92BF92CF92DF92EF92FF920F931F93D6
:10303000CF93DF931F92CDB7DEB72C01C62E942E0F
:10304000622F0E9435177C01892B09F43DC0F201E3
:10305000848195810E941B17B82EF201138904897F
:103060008189C80E8289981AD92CD01A212F4D2D0A
:103070006C2DC2010E94A114882319F1EB0CF11CE4
:10308000195F169516951695612E712CD914C9F0F5
:103090003C2D57018A2D8E19811778F4F501049182
:1030A00020E04D2D632FC20139830E94821AFFEF69
:1030B000AF1ABF0A3981385FEDCFE60CF71CD39405
:1030C000E5CFF201808901C080E00F90DF91CF91C0
:1030D0001F910F91FF90EF90DF90CF90BF90AF9036
:1030E0009F907F906F905F904F900895AF92BF92A6
:1030F000DF92EF92FF920F931F93CF93DF9300D055
:10310000CDB7DEB77C01D62E042FDC015596ED91AC
:10311000FC91569729833A830995080F2981A22E9D
:103120003A81B32E10E0F50121915F01222341F095
:10313000402F6D2DC7010E940B18D80E180FF3CF2A
:10314000812F0F900F90DF91CF911F910F91FF90E2
:10315000EF90DF90BF90AF900895DF92EF92FF92D3
:103160000F931F93CF93DF937C01D62FD42E890129
:10317000DC015596ED91FC9156970995D80EC0E06B
:10318000F8012491222351F04D2D6D2FC7010E948B
:103190000B18D80FC80F0F5F1F4FF2CF8C2FDF9186
:1031A000CF911F910F91FF90EF90DF900895DC0178
:1031B00014962D913C9115972115310509F43FC0C6
:1031C00057968C915797F901811108C03596E49173
:1031D0005896EC935897F9013C9611C0813041F410
:1031E0003F96E4915896EC935897F901709607C072
:1031F0003D96E4915896EC935897F9013E96E491E8
:103200005996EC93599758968C915897082E000C24
:10321000990B59962C915997821B910927FD9395EB
:103220005A962C915A97203441F0829FC001112464
:1032300026E0969587952A95E1F75B968C930895FD
:1032400025E237E1FC01368B258B0895CF93DF9380
:10325000FC01248135812617370749F0EC0175837D
:1032600064830E94D71885E297E19E8B8D8BDF9156
:10327000CF9108951F93CF93DF93EC011D821C82A1
:103280001F821E82198681E0888782E28A871F86D4
:103290001E86FE01B396CE01C1962FEF2193E8174B
:1032A000F907E1F711E018A3CE010E9420191F8B46
:1032B000188E198E80E48A8F1B8E8EE89CE19AAB63
:1032C00089ABDF91CF911F910895DB01ED91FC91C6
:1032D0000994EF92FF921F93CF93DF9300D0CDB765
:1032E000DEB77C01DC01D196ED91FC91D29782E0B2
:1032F00069837A83099520E030E04AE069817A8128
:10330000C7010E946519182FD701D196ED91FC9144
:10331000D29783E00995D701D196ED91FC91D29790
:1033200080E00995812F0F900F90DF91CF911F9131
:10333000FF90EF9008950F931F93CF93DF93EC01CD
:103340008B01E9A9FAA982E00995E9A9FAA981E026
:10335000099520E030E044E1B801CE010E946519F2
:103360009E012D5C3F4F47E1B801CE010E946519D7
:10337000E9A9FAA980E0DF91CF911F910F910994FB
:10338000EF92FF921F93CF93DF93EC017B01E9A9AA
:10339000FAA982E00995E9A9FAA981E0099520E056
:1033A00030E045E1B701CE010E946519182F88234E
:1033B00041F09E012D5C3F4F47E1B701CE010E94D5
:1033C0006519E9A9FAA980E00995812FDF91CF91CC
:1033D0001F91FF90EF900895FC01448F258F9C0171
:1033E000245E3F4F42E30C946519CF93DF931F9205
:1033F000CDB7DEB79E012F5F3F4F46E40E946519AF
:1034000089810F90DF91CF910895CF93DF931F9221
:10341000CDB7DEB79E012F5F3F4F47E40E9465198D
:1034200089810F90DF91CF91089520E030E048E44A
:103430000C946519CF93DF93EC016A817B810E9424
:10344000F51988836A817B81CE010E94051A8983E0
:103450006A817B81CE010E94151A8B879E012D5CAB
:103460003F4F6A817B8147E1CE01DF91CF910C9480
:103470006519CF93DF93EC016A817B810E94691902
:10348000882321F0CE010E941A1A81E0DF91CF91AA
:103490000895EF92FF920F931F93CF93DF931F92A4
:1034A000CDB7DEB77C018B0149830E943A19F70141
:1034B00013830283498146A7C7010F90DF91CF9103
:1034C0001F910F91FF90EF900C94391AFC016281CB
:1034D00073810C949B19CF93DF93EC01EE85FF85EC
:1034E000309709F009956A817B81CE01DF91CF91F8
:1034F0000C94C019362F242FFC0162817381432F55
:103500000C94EC190F93FC0182819381648F458F99
:10351000278F068F9F01245E3F4F4BE3BC01CF01F5
:103520000F910C946519FC01128280818150838374
:1035300014820895FC0180819281980F92832181E9
:10354000921760F494819F5F94839381890F82170F
:1035500010F08FEF820F838381E0089580E008955B
:10356000DC011696ED91FC91179715968C919F01B1
:10357000280F311DC9011192E817F907E1F70895E5
:10358000FC0191E08381861708F490E031E0461752
:1035900008F030E0832F892B21E05281451708F491
:1035A00020E02823832F8923822B0895DC01FB014F
:1035B000108212968C911297818315968C91159793
:1035C0008150828313968C9183830895FB014181FE
:1035D0002381213029F0233031F468EF640F04C0D7
:1035E000642F485F01C0642F0C94C01AFC01CB010A
:1035F000BA012681378145810C94FB14DC011696B3
:10360000ED91FC91179712968C91481B477081E0C1
:1036100090E001C0880F4A95EAF7E60FF11D30816E
:10362000222311F0832B02C0809583238083089589
:10363000FB014181DC0112962C911297421768F030
:1036400013962C911397241740F0608115962C91B6
:10365000621718F424810C94FE1A0895CF92DF9219
:10366000FF920F931F93CF93DF936C01EB01FA80CE
:103670009B81913051F030F0923049F0933051F409
:103680001FEF09C010E001E007C011E004C010E026
:103690000FEF02C010E000E0F7FE04C0BE01C6015B
:1036A0000E94181B9881900F98839981910F99839C
:1036B000FF0C91F7DF91CF911F910F91FF90DF9059
:1036C000CF9008950F931F93CF93DF938901FB0150
:1036D000C281D3814233F9F068F4453109F14731B1
:1036E00041F1443181F5CE010E94B01ACE010E9411
:1036F000931A29C0463411F1473411F14B3319F5AF
:10370000B901CE010E94E61A8823E9F0B801CE0182
:103710000E942E1B18C0B901CE010E94181B13C0B5
:10372000CE010E949A1A882379F0CE010E94B01A25
:103730000AC0B901CE010E94D61A05C08D8101C010
:103740008981F801808381E0DF91CF911F910F91F2
:103750000895CF92DF92EF92FF920F931F93CF9332
:10376000DF937C01D62FD42EC22F122FC62EC20E6D
:103770006C2D611B183040F00FEF20E04D2DC7017C
:103780000E94821A1850F4CF6C2F687F6D0F2C2F77
:10379000277079F097E029272F5F27700FEF10E04F
:1037A00001C0000F2A95EAF720E04D2DC7010E94C5
:1037B000821ADF91CF911F910F91FF90EF90DF90D0
:1037C000CF900895CF92DF92EF92FF920F931F93C5
:1037D000CF93DF937C01D62ED42FC22F122FC42E6D
:1037E000C20E4C2D411B183040F00FEF21E06D2D23
:1037F000C7010E94821A1850F4CF4C2F487F4D0FFA
:103800002C2F277079F097E029272F5F27700FEF73
:1038100010E001C0000F2A95EAF721E06D2DC701E5
:103820000E94821ADF91CF911F910F91FF90EF902C
:10383000DF90CF900895DF92EF92FF920F931F9346
:10384000CF93DF937C01162FC42FD22ED02F0E944E
:10385000A114882319F12D2D4C2F612FC7010E942F
:10386000A91B2D2F4C2F612FC7010E94E21B6FEF68
:103870006D0D610F2D2F4C2FC7010E94E21B4FEFE2
:103880004D0F4C0F2D2D612FC701DF91CF911F914F
:103890000F91FF90EF90DF900C94A91BDF91CF91D7
:1038A0001F910F91FF90EF90DF900895EF92FF929C
:1038B0000F931F93CF93DF937C01D62F122FC42F2A
:1038C000040F212F4C2F6D2FC7010E94A91BCF5F22
:1038D0000C13F7CFDF91CF911F910F91FF90EF90D5
:1038E0000895DF92EF92FF920F931F93CF93DF9390
:1038F000EC01162FF42EE22E0E94A114882331F041
:103900002E2D4F2D612FCE010E94561CDF91CF919D
:103910001F910F91FF90EF90DF900895089580E43C
:1039200080937C0087E880937A0008951816190622
:1039300044F4EFE9FFE03197F1F700C00000019790
:10394000F5CF08950E948F1C52985398549855981B
:10395000569884EC91E00E948D1F40E160E071E098
:103960008EEC91E00E94491A7894089590917C0021
:10397000987F892B80937C0080917A00806480936B
:103980007A0080917A0086FDFCCF8091780090913A
:10399000790008954AB121E030E0662349F0B90189
:1039A00002C0660F771F8A95E2F7CB01842B09C00E
:1039B000B90102C0660F771F8A95E2F7CB018095A7
:1039C00084238AB908952F923F924F925F926F920B
:1039D0007F928F929F92AF92BF92CF92DF92EF929F
:1039E000FF920F931F93CF93DF93CDB7DEB763970B
:1039F0000FB6F894DEBF0FBECDBF68E275E18EEC66
:103A000091E00E9426198EE0E82E81E0F82ECE018A
:103A100001965C0110E0C12CD12C412C98E2392E8A
:103A200026E9822E912C30E4232E3701F7016081A4
:103A3000617082E00E94CA1CF70160816695617026
:103A400083E00E94CA1CF70161917F0162FB662737
:103A500060F984E00E94CA1CF301608163FB662761
:103A600060F985E00E94CA1C82E390E00E94961CE7
:103A700080E090E00E94B61CF501819391935F0174
:103A80008C159D0510F06C01412E8EEC91E00E948A
:103A9000661A25E636E240E168E08EEC91E00E948D
:103AA000AD18CE0101963C0130E0512C5116E1F0E9
:103AB000F301419151913F0148575109349EC00192
:103AC000359E900D1124B4010E94F41F422D461B17
:103AD000062F2AE0632F8EEC91E03B8B0E94711C35
:103AE00053943B89305FE2CF8EEC91E00E946B1AD9
:103AF0008111CFCF11E0150D193009F096CF84E672
:103B000090E00E94961C842D63960FB6F894DEBF59
:103B10000FBECDBFDF91CF911F910F91FF90EF901E
:103B2000DF90CF90BF90AF909F908F907F906F90DD
:103B30005F904F903F902F900895EF92FF921F93C8
:103B4000CF93DF931F92CDB7DEB7482F162F90E0AB
:103B50009C01225F3E4F7901F9018081682F6170DD
:103B600082E049830E94CA1CF701808181FB66279D
:103B700060F983E00E94CA1CF701808182FB6627FE
:103B800060F984E00E94CA1CF701808183FB6627EC
:103B900060F985E00E94CA1C498140939D01112370
:103BA00061F06FEF73E08DEC91E00F90DF91CF91BA
:103BB0001F91FF90EF900C9414140F90DF91CF9110
:103BC0001F91FF90EF900895BF92CF92DF92EF92F6
:103BD000FF920F931F93CF93DF93C82F8EEC91E04A
:103BE0000E94661AD0E0CC0FDD1FCE58D94D94E666
:103BF000B92E26E9E22EF12C3BE5C32E36E2D32E78
:103C00001AE76AEA70E08EEC91E00E942619FE0144
:103C10006591749186EA91E00E940E2026EA31E0D7
:103C200048E266E08EEC91E00E9476180DE22FE704
:103C300040E060E08EEC91E00E941B1C6EED7DE0A8
:103C40008EEC91E00E94261920919B0130919C01FD
:103C500028573109B29EC001B39E900D1124B701BF
:103C60000E94F41F7F936F93DF92CF9286EA91E0D8
:103C70009F938F930E94152026EA31E049E363E089
:103C80008EEC91E00E94761820919B0130919C016E
:103C900028573109129FC001139F900D1124B701BD
:103CA0000E94F41F262F03E04BE363E08EEC91E0CB
:103CB0000E94711C00E12FE740E360E08EEC91E090
:103CC0000E941B1C8EEC91E00E946B1A0F900F90CB
:103CD0000F900F900F900F90811193CFDF91CF91A4
:103CE0001F910F91FF90EF90DF90CF90BF900895BC
:103CF0000F931F934E9B26C084EC91E00E94A11F5E
:103D00006093A2017093A3018093A4019093A501F5
:103D10004E9B21C084EC91E00E94A11F0091A20162
:103D20001091A3012091A4013091A501DC01CB01E8
:103D3000801B910BA20BB30B883E9340A105B105EC
:103D400038F309C01092A2011092A3011092A401AD
:103D50001092A50149C084EC91E00E94A11F00913E
:103D6000A2011091A3012091A4013091A501DC01D1
:103D7000CB01801B910BA20BB30B80939E01909300
:103D80009F01A093A001B093A10180919E01909109
:103D90009F01A091A001B091A101883C9105A105CE
:103DA000B10570F480919D018F5F893018F4809384
:103DB0009D0102C010929D0161E080919D0110C0A3
:103DC00080919E0190919F01A091A001B091A101CD
:103DD000883E9340A105B10538F00E94E31C61E0E4
:103DE0001F910F910C949D1D1F910F9108951F938A
:103DF000CF93DF9314E6C0E0D0E080E090E00E9433
:103E0000B61CC80FD91F1150C1F7CE0164E670E08F
:103E10000E94F41F6837710528F070939C0160932D
:103E20009B0106C088E790E090939C0180939B01E2
:103E300080919B0190919C018F30914030F08EE0F9
:103E400091E090939C0180939B01DF91CF911F9112
:103E50000895EF92FF920F938EEC91E00E94661A04
:103E600068E275E18EEC91E00E94261923E536E2C6
:103E700048E166E38EEC91E00E94AD1861E576E0E2
:103E80008EEC91E00E94261926E436E244E266E3D5
:103E90008EEC91E00E94AD1865EA72E28EEC91E042
:103EA0000E94261925E336E240E466E48EEC91E0B8
:103EB0000E94AD1881EBE82E86E2F82E00E320E3A5
:103EC00048E060E08EEC91E00E9423148EEC91E0DB
:103ED0000E946B1A8111C4CF80ED97E00F91FF9083
:103EE000EF900C94961C0E94A21C0E94291F6FEF59
:103EF00073E08DEC91E00E941C1460E00E949D1D17
:103F000080919D010E94E41D0E94781E0E94F71E70
:103F1000F7CF84EC91E00C94961FEEE6F0E0808100
:103F20008160808385B5836085BD0895FC01108222
:103F300011821282138214821582168217821086D1
:103F400008952FB7F894FC0164817581868197816B
:103F50002FBF08951F920F920FB60F9211242F9327
:103F60003F938F939F93AF93BF938091C80190919C
:103F7000C901A091CA01B091CB013091CC0123E0DD
:103F8000230F2D3720F40196A11DB11D05C026E891
:103F9000230F0296A11DB11D2093CC018093C8016F
:103FA0009093C901A093CA01B093CB018091C40141
:103FB0009091C501A091C601B091C7010196A11DC4
:103FC000B11D8093C4019093C501A093C601B09325
:103FD000C701BF91AF919F918F913F912F910F900A
:103FE0000FBE0F901F901895AA1BBB1B51E107C075
:103FF000AA1FBB1FA617B70710F0A61BB70B881F79
:10400000991F5A95A9F780959095BC01CD01089507
:10401000EE0FFF1F0590F491E02D0994FB01DC01E8
:1040200005900D920020E1F70895AEE0B0E0EBE1DD
:10403000F0E20C94C4220D891E898EE08C831A83D1
:1040400009838FEF9FE79E838D83AE01475E5F4FAD
:104050006F89788DCE0101960E9438202F81388596
:10406000F801E20FF31F10822E96E4E00C94E02298
:10407000ACE0B0E0EEE3F0E20C94B6227C016B0120
:104080008A01FC0117821682838181FFBDC1CE01A6
:1040900001964C01F7019381F60193FD859193FF01
:1040A00081916F01882309F4ABC1853239F493FD06
:1040B000859193FF81916F01853229F4B70190E0DA
:1040C0000E942022E7CF512C312C20E02032A0F496
:1040D0008B3269F030F4803259F0833269F4206118
:1040E0002CC08D3239F0803339F4216026C0226033
:1040F000246023C0286021C027FD27C030ED380F81
:104100003A3078F426FF06C0FAE05F9E300D1124A5
:10411000532E13C08AE0389E300D1124332E2062B6
:104120000CC08E3221F426FD6BC1206406C08C3693
:1041300011F4206802C0883641F4F60193FD8591A0
:1041400093FF81916F018111C1CF982F9F7D95546D
:10415000933028F40C5F1F4FFFE3F9830DC08336C3
:1041600031F0833771F0833509F05BC022C0F8016C
:10417000808189830E5F1F4F44244394512C540146
:1041800015C03801F2E06F0E711CF801A080B180FB
:1041900026FF03C0652D70E002C06FEF7FEFC50101
:1041A0002C870E9415222C0183012C852F77222E2B
:1041B00017C03801F2E06F0E711CF801A080B180C9
:1041C00026FF03C0652D70E002C06FEF7FEFC501D1
:1041D0002C870E940A222C012C852068222E830124
:1041E00023FC1BC0832D90E048165906B0F4B7019C
:1041F00080E290E00E9420223A94F4CFF50127FC5F
:10420000859127FE81915F01B70190E00E942022F5
:1042100031103A94F1E04F1A51084114510471F7EA
:10422000E5C0843611F0893639F5F80127FF07C05B
:1042300060817181828193810C5F1F4F08C0608112
:104240007181072E000C880B990B0E5F1F4F2F7684
:10425000722E97FF09C090958095709561957F4F5C
:104260008F4F9F4F2068722E2AE030E0A4010E94F9
:104270005822A82EA81844C0853729F42F7EB22EC4
:104280002AE030E025C0F22FF97FBF2E8F36C1F033
:1042900018F4883579F0B4C0803719F0883721F0E8
:1042A000AFC02F2F2061B22EB4FE0DC08B2D8460C5
:1042B000B82E09C024FF0AC09F2F9660B92E06C0F1
:1042C00028E030E005C020E130E002C020E132E02B
:1042D000F801B7FE07C060817181828193810C5F14
:1042E0001F4F06C06081718180E090E00E5F1F4F1C
:1042F000A4010E945822A82EA818FB2DFF777F2E1C
:1043000076FE0BC0372D3E7FA51450F474FE0AC014
:1043100072FC08C0372D3E7E05C0BA2C372D03C075
:10432000BA2C01C0B52C34FF0DC0FE01EA0DF11D01
:104330008081803311F4397E09C032FF06C0B39406
:10434000B39404C0832F867809F0B39433FD13C06F
:1043500030FF06C05A2CB31418F4530C5B18B32C5E
:10436000B31468F4B70180E290E03C870E942022F9
:10437000B3943C85F5CFB31410F43B1801C0312C35
:1043800034FF12C0B70180E390E03C870E942022F6
:104390003C8532FF17C031FD03C088E790E002C0C2
:1043A00088E590E0B7010CC0832F867859F031FF83
:1043B00002C08BE201C080E237FD8DE2B70190E0E0
:1043C0000E942022A51438F4B70180E390E00E94F7
:1043D00020225A94F7CFAA94F401EA0DF11D8081AE
:1043E000B70190E00E942022A110F5CF332009F4FC
:1043F00051CEB70180E290E00E9420223A94F6CF9D
:10440000F7018681978102C08FEF9FEF2C96E2E142
:104410000C94D222FC010590615070400110D8F735
:10442000809590958E0F9F1F0895FC0161507040FC
:1044300001900110D8F7809590958E0F9F1F0895D9
:104440000F931F93CF93DF93FB01238121FD03C0C3
:104450008FEF9FEF28C022FF16C04681578124812D
:1044600035814217530744F4A081B1819D012F5F2C
:104470003F4F318320838C93268137812F5F3F4FBD
:104480003783268310C0EB01092F182F0084F18594
:10449000E02D0995892BE1F68E819F8101969F83FE
:1044A0008E83812F902FDF91CF911F910F910895CF
:1044B000FA01AA27283051F1203181F1E8946F9355
:1044C0006E7F6E5F7F4F8F4F9F4FAF4FB1E03ED0FB
:1044D000B4E03CD0670F781F891F9A1FA11D680F99
:1044E000791F8A1F911DA11D6A0F711D811D911DCC
:1044F000A11D20D009F468943F912AE0269F112441
:104500003019305D3193DEF6CF010895462F4770A4
:10451000405D4193B3E00FD0C9F7F6CF462F4F70FF
:10452000405D4A3318F0495D31FD4052419302D05D
:10453000A9F7EACFB4E0A695979587957795679503
:10454000BA95C9F700976105710508959B01AC0103
:104550000A2E06945795479537952795BA95C9F72A
:10456000620F731F841F951FA01D08952F923F9205
:104570004F925F926F927F928F929F92AF92BF9273
:10458000CF92DF92EF92FF920F931F93CF93DF931F
:10459000CDB7DEB7CA1BDB0B0FB6F894DEBF0FBE7C
:1045A000CDBF09942A88398848885F846E847D84C9
:1045B0008C849B84AA84B984C884DF80EE80FD80CB
:1045C0000C811B81AA81B981CE0FD11D0FB6F89441
:0E45D000DEBF0FBECDBFED010895F894FFCF02
:1045DE00831606017C150840000000801B010103B4
:0845EE000507090B0D0F080081
:00000001FF
